{
  "contractName": "dBank",
  "abi": [
    {
      "inputs": [
        {
          "internalType": "address",
          "name": "_tokenaddress",
          "type": "address"
        }
      ],
      "stateMutability": "nonpayable",
      "type": "constructor"
    },
    {
      "anonymous": false,
      "inputs": [
        {
          "indexed": false,
          "internalType": "address",
          "name": "account",
          "type": "address"
        },
        {
          "indexed": false,
          "internalType": "uint256",
          "name": "amount",
          "type": "uint256"
        },
        {
          "indexed": false,
          "internalType": "bool",
          "name": "deposited",
          "type": "bool"
        }
      ],
      "name": "Deposit",
      "type": "event"
    },
    {
      "anonymous": false,
      "inputs": [
        {
          "indexed": false,
          "internalType": "address",
          "name": "account",
          "type": "address"
        },
        {
          "indexed": false,
          "internalType": "uint256",
          "name": "amount",
          "type": "uint256"
        },
        {
          "indexed": false,
          "internalType": "bool",
          "name": "deposited",
          "type": "bool"
        }
      ],
      "name": "Withdraw",
      "type": "event"
    },
    {
      "inputs": [],
      "name": "devtoken",
      "outputs": [
        {
          "internalType": "contract Token",
          "name": "",
          "type": "address"
        }
      ],
      "stateMutability": "view",
      "type": "function",
      "constant": true
    },
    {
      "inputs": [
        {
          "internalType": "address",
          "name": "",
          "type": "address"
        }
      ],
      "name": "users",
      "outputs": [
        {
          "internalType": "uint256",
          "name": "amount",
          "type": "uint256"
        },
        {
          "internalType": "bool",
          "name": "deposited",
          "type": "bool"
        },
        {
          "internalType": "uint256",
          "name": "createdTime",
          "type": "uint256"
        }
      ],
      "stateMutability": "view",
      "type": "function",
      "constant": true
    },
    {
      "inputs": [],
      "name": "getDeposit",
      "outputs": [
        {
          "internalType": "uint256",
          "name": "",
          "type": "uint256"
        }
      ],
      "stateMutability": "view",
      "type": "function",
      "constant": true
    },
    {
      "inputs": [],
      "name": "deposit",
      "outputs": [],
      "stateMutability": "payable",
      "type": "function",
      "payable": true
    },
    {
      "inputs": [],
      "name": "withdraw",
      "outputs": [],
      "stateMutability": "nonpayable",
      "type": "function"
    },
    {
      "inputs": [],
      "name": "borrow",
      "outputs": [],
      "stateMutability": "payable",
      "type": "function",
      "payable": true
    },
    {
      "inputs": [],
      "name": "payOff",
      "outputs": [],
      "stateMutability": "nonpayable",
      "type": "function"
    }
  ],
  "bytecode": "0x6080604052620186a060015534801561001757600080fd5b506040516108e33803806108e38339818101604052602081101561003a57600080fd5b8101908080519060200190929190505050806000806101000a81548173ffffffffffffffffffffffffffffffffffffffff021916908373ffffffffffffffffffffffffffffffffffffffff160217905550506108488061009b6000396000f3fe6080604052600436106100705760003560e01c8063a87430ba1161004e578063a87430ba146100e4578063c399ec8814610159578063d0e30db014610184578063e68d35691461018e57610070565b80633ccfd60b146100755780633fac68d51461008c5780636c523af0146100a3575b600080fd5b34801561008157600080fd5b5061008a610198565b005b34801561009857600080fd5b506100a1610533565b005b3480156100af57600080fd5b506100b8610535565b604051808273ffffffffffffffffffffffffffffffffffffffff16815260200191505060405180910390f35b3480156100f057600080fd5b506101336004803603602081101561010757600080fd5b81019080803573ffffffffffffffffffffffffffffffffffffffff169060200190929190505050610559565b604051808481526020018315158152602001828152602001935050505060405180910390f35b34801561016557600080fd5b5061016e610590565b6040518082815260200191505060405180910390f35b61018c6105da565b005b610196610810565b005b600260003373ffffffffffffffffffffffffffffffffffffffff1673ffffffffffffffffffffffffffffffffffffffff16815260200190815260200160002060010160009054906101000a900460ff1661025a576040517f08c379a00000000000000000000000000000000000000000000000000000000081526004018080602001828103825260178152602001807f4e6f206465706f73697420666f7220746865207573657200000000000000000081525060200191505060405180910390fd5b6000600260003373ffffffffffffffffffffffffffffffffffffffff1673ffffffffffffffffffffffffffffffffffffffff1681526020019081526020016000206000015490506000600260003373ffffffffffffffffffffffffffffffffffffffff1673ffffffffffffffffffffffffffffffffffffffff168152602001908152602001600020600201544203905060006001548202905060003390508073ffffffffffffffffffffffffffffffffffffffff166108fc600260003373ffffffffffffffffffffffffffffffffffffffff1673ffffffffffffffffffffffffffffffffffffffff168152602001908152602001600020600001549081150290604051600060405180830381858888f19350505050158015610380573d6000803e3d6000fd5b5060008054906101000a900473ffffffffffffffffffffffffffffffffffffffff1673ffffffffffffffffffffffffffffffffffffffff166340c10f1933846040518363ffffffff1660e01b8152600401808373ffffffffffffffffffffffffffffffffffffffff16815260200182815260200192505050600060405180830381600087803b15801561041257600080fd5b505af1158015610426573d6000803e3d6000fd5b505050506000600260003373ffffffffffffffffffffffffffffffffffffffff1673ffffffffffffffffffffffffffffffffffffffff168152602001908152602001600020600001819055506000600260003373ffffffffffffffffffffffffffffffffffffffff1673ffffffffffffffffffffffffffffffffffffffff16815260200190815260200160002060010160006101000a81548160ff0219169083151502179055507f039d3e7ccc0d8edf3fb8206bf9f58888c4cced8c157c730a2407a54aad7c865c33856000604051808473ffffffffffffffffffffffffffffffffffffffff1681526020018381526020018215158152602001935050505060405180910390a150505050565b565b60008054906101000a900473ffffffffffffffffffffffffffffffffffffffff1681565b60026020528060005260406000206000915090508060000154908060010160009054906101000a900460ff16908060020154905083565b6000600260003373ffffffffffffffffffffffffffffffffffffffff1673ffffffffffffffffffffffffffffffffffffffff16815260200190815260200160002060000154905090565b600260003373ffffffffffffffffffffffffffffffffffffffff1673ffffffffffffffffffffffffffffffffffffffff16815260200190815260200160002060010160009054906101000a900460ff161561069d576040517f08c379a00000000000000000000000000000000000000000000000000000000081526004018080602001828103825260168152602001807f5573657220616c7265616479206465706f73697465640000000000000000000081525060200191505060405180910390fd5b662386f26fc1000034101561071a576040517f08c379a000000000000000000000000000000000000000000000000000000000815260040180806020018281038252601a8152602001807f4e6f7420656e6f7567682045746865722070726f76696465642e00000000000081525060200191505060405180910390fd5b604051806060016040528034815260200160011515815260200142815250600260003373ffffffffffffffffffffffffffffffffffffffff1673ffffffffffffffffffffffffffffffffffffffff1681526020019081526020016000206000820151816000015560208201518160010160006101000a81548160ff021916908315150217905550604082015181600201559050507f693c1828300d1cab0919b948d714897f817e305af51c026ad14233b6a8939adb33346001604051808473ffffffffffffffffffffffffffffffffffffffff1681526020018381526020018215158152602001935050505060405180910390a1565b56fea26469706673582212204f6a08abe3e201688eb7de6e8f41b428aa382c429df050dd677f3849715d89db64736f6c634300060c0033",
  "immutableReferences": {},
  "source": "// SPDX-License-Identifier: MIT\r\npragma solidity >=0.6.0 <0.8.0;\r\n\r\nimport \"./Token.sol\";\r\n\r\ncontract dBank {\r\n    //assign Token contract to variable\r\n     Token public devtoken;\r\n     uint256 rate = 10 ** 5;\r\n\r\n    //add mappings\r\n    struct User {\r\n        uint256 amount;\r\n        bool deposited;\r\n        uint256  createdTime;\r\n    }\r\n\r\n    mapping(address => User) public users;\r\n\r\n    //add events\r\n    event Deposit(address account, uint256 amount, bool deposited);\r\n    event Withdraw(address account, uint256 amount, bool deposited);\r\n\r\n    //pass as constructor argument deployed Token contract\r\n    constructor(address _tokenaddress) public {\r\n        //assign token deployed contract to variable\r\n        devtoken  = Token(_tokenaddress);\r\n    }\r\n\r\n    function getDeposit() public view returns(uint256) {\r\n      return users[msg.sender].amount;\r\n    }\r\n\r\n    function deposit() public payable{\r\n        //check if msg.sender didn't already deposited funds\r\n        require(!users[msg.sender].deposited,\"User already deposited\");\r\n\r\n        //check if msg.value is >= than 0.01 ETH\r\n        require( msg.value >=  0.01 ether,  \"Not enough Ether provided.\");\r\n\r\n        //increase msg.sender ether deposit balance and set msg.sender deposit status to true\r\n        //start msg.sender hodling time\r\n        users[msg.sender] = User( msg.value, true,now);\r\n  \r\n        //emit Deposit event\r\n        emit Deposit(msg.sender, msg.value, true);\r\n    }\r\n\r\n    function withdraw() public {\r\n        //check if msg.sender deposit status is true\r\n        require(users[msg.sender].deposited,\"No deposit for the user\");\r\n\r\n        //assign msg.sender ether deposit balance to variable for event\r\n        uint256 balance = users[msg.sender].amount;\r\n        //check user's hodl time\r\n\r\n        //calc interest per second\r\n        uint256 secs = (now - users[msg.sender].createdTime) ;\r\n        uint256 interest = secs * rate;\r\n       \r\n        //calc accrued interest\r\n\r\n        //send eth to user\r\n        address payable to = payable(msg.sender);\r\n        to.transfer(users[msg.sender].amount);\r\n\r\n        //send interest in tokens to user\r\n\r\n        devtoken.mint(msg.sender,interest);\r\n\r\n\r\n        //reset depositer data\r\n        users[msg.sender].amount = 0;\r\n        users[msg.sender].deposited = false;\r\n        //emit event\r\n        emit Withdraw(msg.sender, balance, false);\r\n    }\r\n\r\n    function borrow() public payable {\r\n        //check if collateral is >= than 0.01 ETH\r\n        //check if user doesn't have active loan\r\n        //add msg.value to ether collateral\r\n        //calc tokens amount to mint, 50% of msg.value\r\n        //mint&send tokens to user\r\n        //activate borrower's loan status\r\n        //emit event\r\n    }\r\n\r\n    function payOff() public {\r\n        //check if loan is active\r\n        //transfer tokens from user back to the contract\r\n        //calc fee\r\n        //send user's collateral minus fee\r\n        //reset borrower's data\r\n        //emit event\r\n    }\r\n}\r\n",
  "sourcePath": "C:/Users/Nikhil/Desktop/dbank-starter_kit/dbank-starter_kit/src/contracts/dBank.sol",
  "compiler": {
    "name": "solc",
    "version": "0.6.12+commit.27d51765.Emscripten.clang"
  },
  "schemaVersion": "3.4.1",
  "updatedAt": "2021-07-02T18:41:37.654Z",
  "networkType": "ethereum",
  "devdoc": {
    "kind": "dev",
    "methods": {},
    "version": 1
  },
  "userdoc": {
    "kind": "user",
    "methods": {},
    "version": 1
  }
}